:02000000F029E5
:10000800FF00030E8301A1000A08A2008A010B1C4D
:10001800A728A501A601F101851D14280130F100CA
:100028007108013A031D1C28A50A0319A60A0F28FE
:100038002508F0002608F100CB21A330F400923007
:10004800F5006430F6008230F7006A210D2170084F
:10005800A5007108A6008030053AF20080307106CC
:100068007202031D39287008DC3C031C3E28051168
:10007800851440288510051580302606F00080304C
:10008800043A7002031D4A28E2302502031C5E2848
:100098008030063AF000803026067002031D56288C
:1000A8002508D63C031C5B28851205165D28051219
:1000B8008516602805128516A301A401F101851D86
:1000C80067280130F1007108003A031D7E28A30A51
:1000D8000319A40A80302406F00080301B3A70020D
:1000E800031D782858302302031C7D28E921A30129
:1000F800A4016228F101851D83280130F1007108EF
:10010800013A031D892805107E28A301A401F101E5
:10011800851D90280130F1007108003A031DA728B9
:10012800A30A0319A40A80302406F00080301B3A81
:100138007002031DA12858302302031CA628E921B8
:10014800A301A4018B2822088A00210E8300FF0E38
:040158007F0E09000D
:0E015C00F201F101F001F801F301003008009A
:10016A007B15FB1FBF280130F300F201F101F001FA
:08017A00FA0DF20CFF30080041
:08018200FA1FF213003008001F
:10018A00A0017208031DDA287108F2007008F10054
:10019A00F001A0157208031DDA287108F200F101B6
:1001AA00A011201672080319E8282008F302031D7B
:1001BA00031CEC280310F21BF028F00DF10DF20DD0
:1001CA00F30BE028EC280130FC00AE20F3280230C3
:0E01DA00FC00B520F3280430FC00C120080012
:1001E800FB14FB1FFE28FF30F300F200F100F000C3
:0801F800FA0DF20CFF300800C3
:100200007B14FB1F0B29F201FA1FFF30F200F100F3
:0A021000F000FA0DF20CFF300800B8
:10021A0083120313FB01730803194A297208FA00AF
:10022A00F2178E30F302F31F4D29F309F30A08304F
:10023A007302031C3029F300F10D7208F100F20178
:10024A0008307302031C3029F300F10DF101730821
:10025A00031D031038297308031938290310F20CF7
:10026A00F10CF30B33297B1B711C4229031C422915
:10027A00F10A0319F20AF21B5929FA1F5C29F20939
:10028A00F109F10A0319F20A5C29F201F1015C2968
:10029A007B14FB1F5F29F201FA1F5F29FF30F2006E
:1002AA00F100FA0DF20C5F290130FC0061290030DF
:1002BA00FC006129FF30FC00FC08031965290021B4
:0A02CA007108F0007208F10008004E
:1002D40083120313FB017308031D77080319C12953
:1002E40072087606FA007708F3077E30031C7E292D
:1002F400F3020318C4298129F302031CC7297208D5
:10030400F8007108FC007008FD00F817F6170310D8
:10031400F201F101F0011830A0007D1C9B29740842
:10032400F00775080318750FF10776080318760FA0
:10033400F207F20CF10CF00CF80CFC0CFD0C0310A1
:10034400A00B8F29F21BAB29F80DF00DF10DF20D66
:10035400F3037B1B701CBD29F81FBD29F00A031988
:10036400F10A0319F20A031DBD29F20CF10CF00C79
:10037400F30A0319C429FA1FF2130030C929013002
:10038400AE20C9290230F420C9290430B520000068
:0203940008005F
:10039600831203137008F8007108F000F101F201EE
:1003A600F301FB01FC019630F300FA01F01FE1298D
:1003B600F809F009F80A0319F00AFA177008F100AB
:0C03C6007808F000F801F201C5200800E2
:0E03D200831205148516851405120511080006
:1003E00087308316810007308312990083169F019E
:1003F00083129F0183168501E9218B178B158316C4
:060400009615012A022AF4
:02400E00D40FCD
:00000001FF
